{
  "contractName": "BlockDesk",
  "abi": [
    {
      "inputs": [],
      "stateMutability": "nonpayable",
      "type": "constructor"
    },
    {
      "anonymous": false,
      "inputs": [
        {
          "indexed": true,
          "internalType": "uint256",
          "name": "ticketId",
          "type": "uint256"
        },
        {
          "indexed": false,
          "internalType": "enum BlockDesk.TicketStatus",
          "name": "status",
          "type": "uint8"
        },
        {
          "indexed": true,
          "internalType": "address",
          "name": "updater",
          "type": "address"
        }
      ],
      "name": "StatusUpdated",
      "type": "event"
    },
    {
      "anonymous": false,
      "inputs": [
        {
          "indexed": true,
          "internalType": "uint256",
          "name": "ticketId",
          "type": "uint256"
        },
        {
          "indexed": true,
          "internalType": "address",
          "name": "assignee",
          "type": "address"
        },
        {
          "indexed": true,
          "internalType": "address",
          "name": "assigner",
          "type": "address"
        }
      ],
      "name": "TicketAssigned",
      "type": "event"
    },
    {
      "anonymous": false,
      "inputs": [
        {
          "indexed": true,
          "internalType": "uint256",
          "name": "ticketId",
          "type": "uint256"
        },
        {
          "indexed": true,
          "internalType": "address",
          "name": "creator",
          "type": "address"
        },
        {
          "indexed": false,
          "internalType": "string",
          "name": "title",
          "type": "string"
        }
      ],
      "name": "TicketCreated",
      "type": "event"
    },
    {
      "inputs": [],
      "name": "nextTicketId",
      "outputs": [
        {
          "internalType": "uint256",
          "name": "",
          "type": "uint256"
        }
      ],
      "stateMutability": "view",
      "type": "function",
      "constant": true
    },
    {
      "inputs": [
        {
          "internalType": "uint256",
          "name": "",
          "type": "uint256"
        }
      ],
      "name": "tickets",
      "outputs": [
        {
          "internalType": "uint256",
          "name": "id",
          "type": "uint256"
        },
        {
          "internalType": "address",
          "name": "creator",
          "type": "address"
        },
        {
          "internalType": "address",
          "name": "assignedTo",
          "type": "address"
        },
        {
          "internalType": "string",
          "name": "title",
          "type": "string"
        },
        {
          "internalType": "string",
          "name": "description",
          "type": "string"
        },
        {
          "internalType": "string",
          "name": "attachmentHash",
          "type": "string"
        },
        {
          "internalType": "enum BlockDesk.TicketStatus",
          "name": "status",
          "type": "uint8"
        },
        {
          "internalType": "uint256",
          "name": "createdAt",
          "type": "uint256"
        },
        {
          "internalType": "uint256",
          "name": "updatedAt",
          "type": "uint256"
        }
      ],
      "stateMutability": "view",
      "type": "function",
      "constant": true
    },
    {
      "inputs": [
        {
          "internalType": "address",
          "name": "",
          "type": "address"
        }
      ],
      "name": "userRoles",
      "outputs": [
        {
          "internalType": "enum BlockDesk.UserRole",
          "name": "",
          "type": "uint8"
        }
      ],
      "stateMutability": "view",
      "type": "function",
      "constant": true
    },
    {
      "inputs": [
        {
          "internalType": "string",
          "name": "title",
          "type": "string"
        },
        {
          "internalType": "string",
          "name": "description",
          "type": "string"
        },
        {
          "internalType": "string",
          "name": "attachmentHash",
          "type": "string"
        }
      ],
      "name": "createTicket",
      "outputs": [
        {
          "internalType": "uint256",
          "name": "",
          "type": "uint256"
        }
      ],
      "stateMutability": "nonpayable",
      "type": "function"
    },
    {
      "inputs": [
        {
          "internalType": "uint256",
          "name": "ticketId",
          "type": "uint256"
        },
        {
          "internalType": "enum BlockDesk.TicketStatus",
          "name": "status",
          "type": "uint8"
        }
      ],
      "name": "updateStatus",
      "outputs": [],
      "stateMutability": "nonpayable",
      "type": "function"
    },
    {
      "inputs": [
        {
          "internalType": "uint256",
          "name": "ticketId",
          "type": "uint256"
        },
        {
          "internalType": "address",
          "name": "assignee",
          "type": "address"
        }
      ],
      "name": "assignTicket",
      "outputs": [],
      "stateMutability": "nonpayable",
      "type": "function"
    },
    {
      "inputs": [
        {
          "internalType": "uint256",
          "name": "ticketId",
          "type": "uint256"
        }
      ],
      "name": "resolveTicket",
      "outputs": [],
      "stateMutability": "nonpayable",
      "type": "function"
    },
    {
      "inputs": [
        {
          "internalType": "uint256",
          "name": "ticketId",
          "type": "uint256"
        }
      ],
      "name": "closeTicket",
      "outputs": [],
      "stateMutability": "nonpayable",
      "type": "function"
    },
    {
      "inputs": [
        {
          "internalType": "address",
          "name": "user",
          "type": "address"
        },
        {
          "internalType": "enum BlockDesk.UserRole",
          "name": "role",
          "type": "uint8"
        }
      ],
      "name": "setUserRole",
      "outputs": [],
      "stateMutability": "nonpayable",
      "type": "function"
    },
    {
      "inputs": [
        {
          "internalType": "uint256",
          "name": "ticketId",
          "type": "uint256"
        }
      ],
      "name": "getTicket",
      "outputs": [
        {
          "components": [
            {
              "internalType": "uint256",
              "name": "id",
              "type": "uint256"
            },
            {
              "internalType": "address",
              "name": "creator",
              "type": "address"
            },
            {
              "internalType": "address",
              "name": "assignedTo",
              "type": "address"
            },
            {
              "internalType": "string",
              "name": "title",
              "type": "string"
            },
            {
              "internalType": "string",
              "name": "description",
              "type": "string"
            },
            {
              "internalType": "string",
              "name": "attachmentHash",
              "type": "string"
            },
            {
              "internalType": "enum BlockDesk.TicketStatus",
              "name": "status",
              "type": "uint8"
            },
            {
              "internalType": "uint256",
              "name": "createdAt",
              "type": "uint256"
            },
            {
              "internalType": "uint256",
              "name": "updatedAt",
              "type": "uint256"
            }
          ],
          "internalType": "struct BlockDesk.Ticket",
          "name": "",
          "type": "tuple"
        }
      ],
      "stateMutability": "view",
      "type": "function",
      "constant": true
    },
    {
      "inputs": [],
      "name": "getAllTickets",
      "outputs": [
        {
          "components": [
            {
              "internalType": "uint256",
              "name": "id",
              "type": "uint256"
            },
            {
              "internalType": "address",
              "name": "creator",
              "type": "address"
            },
            {
              "internalType": "address",
              "name": "assignedTo",
              "type": "address"
            },
            {
              "internalType": "string",
              "name": "title",
              "type": "string"
            },
            {
              "internalType": "string",
              "name": "description",
              "type": "string"
            },
            {
              "internalType": "string",
              "name": "attachmentHash",
              "type": "string"
            },
            {
              "internalType": "enum BlockDesk.TicketStatus",
              "name": "status",
              "type": "uint8"
            },
            {
              "internalType": "uint256",
              "name": "createdAt",
              "type": "uint256"
            },
            {
              "internalType": "uint256",
              "name": "updatedAt",
              "type": "uint256"
            }
          ],
          "internalType": "struct BlockDesk.Ticket[]",
          "name": "",
          "type": "tuple[]"
        }
      ],
      "stateMutability": "view",
      "type": "function",
      "constant": true
    }
  ],
  "bytecode": "0x6080604052600160025534801561001557600080fd5b5060018060003373ffffffffffffffffffffffffffffffffffffffff1673ffffffffffffffffffffffffffffffffffffffff16815260200190815260200160002060006101000a81548160ff0219169083600181111561007857610077610082565b5b02179055506100b1565b7f4e487b7100000000000000000000000000000000000000000000000000000000600052602160045260246000fd5b61272880620000c16000396000f3fe608060405234801561001057600080fd5b50600436106100a95760003560e01c806345d8c7861161007157806345d8c7861461015057806350b447121461016c5780636031a52f146101a457806374d5e100146101c25780637dc379fa146101f25780638d9ab05b14610222576100a9565b806303a69611146100ae57806303e96fe3146100ca57806320e14e49146100e85780633a1b3d31146101045780633dc261f914610120575b600080fd5b6100c860048036038101906100c39190611894565b61023e565b005b6100d261035b565b6040516100df9190611b98565b60405180910390f35b61010260048036038101906100fd9190611be6565b6106f5565b005b61011e60048036038101906101199190611c38565b6108aa565b005b61013a60048036038101906101359190611dad565b610b34565b6040516101479190611e63565b60405180910390f35b61016a60048036038101906101659190611be6565b610d5e565b005b61018660048036038101906101819190611be6565b610f13565b60405161019b99989796959493929190611ee6565b60405180910390f35b6101ac611146565b6040516101b99190611e63565b60405180910390f35b6101dc60048036038101906101d79190611f88565b61114c565b6040516101e99190611ffd565b60405180910390f35b61020c60048036038101906102079190611be6565b61116c565b60405161021991906120eb565b60405180910390f35b61023c6004803603810190610237919061210d565b6114ac565b005b600180811115610251576102506119b8565b5b600160003373ffffffffffffffffffffffffffffffffffffffff1673ffffffffffffffffffffffffffffffffffffffff16815260200190815260200160002060009054906101000a900460ff1660018111156102b0576102af6119b8565b5b146102f0576040517f08c379a00000000000000000000000000000000000000000000000000000000081526004016102e790612199565b60405180910390fd5b80600160008473ffffffffffffffffffffffffffffffffffffffff1673ffffffffffffffffffffffffffffffffffffffff16815260200190815260200160002060006101000a81548160ff02191690836001811115610352576103516119b8565b5b02179055505050565b60606000600160025461036e91906121e8565b905060008167ffffffffffffffff81111561038c5761038b611c82565b5b6040519080825280602002602001820160405280156103c557816020015b6103b2611773565b8152602001906001900390816103aa5790505b5090506000600190505b8281116106ec5760008082815260200190815260200160002060405180610120016040529081600082015481526020016001820160009054906101000a900473ffffffffffffffffffffffffffffffffffffffff1673ffffffffffffffffffffffffffffffffffffffff1673ffffffffffffffffffffffffffffffffffffffff1681526020016002820160009054906101000a900473ffffffffffffffffffffffffffffffffffffffff1673ffffffffffffffffffffffffffffffffffffffff1673ffffffffffffffffffffffffffffffffffffffff1681526020016003820180546104ba9061224b565b80601f01602080910402602001604051908101604052809291908181526020018280546104e69061224b565b80156105335780601f1061050857610100808354040283529160200191610533565b820191906000526020600020905b81548152906001019060200180831161051657829003601f168201915b5050505050815260200160048201805461054c9061224b565b80601f01602080910402602001604051908101604052809291908181526020018280546105789061224b565b80156105c55780601f1061059a576101008083540402835291602001916105c5565b820191906000526020600020905b8154815290600101906020018083116105a857829003601f168201915b505050505081526020016005820180546105de9061224b565b80601f016020809104026020016040519081016040528092919081815260200182805461060a9061224b565b80156106575780601f1061062c57610100808354040283529160200191610657565b820191906000526020600020905b81548152906001019060200180831161063a57829003601f168201915b505050505081526020016006820160009054906101000a900460ff166003811115610685576106846119b8565b5b6003811115610697576106966119b8565b5b815260200160078201548152602001600882015481525050826001836106bd91906121e8565b815181106106ce576106cd61227c565b5b602002602001018190525080806106e4906122ab565b9150506103cf565b50809250505090565b600180811115610708576107076119b8565b5b600160003373ffffffffffffffffffffffffffffffffffffffff1673ffffffffffffffffffffffffffffffffffffffff16815260200190815260200160002060009054906101000a900460ff166001811115610767576107666119b8565b5b146107a7576040517f08c379a000000000000000000000000000000000000000000000000000000000815260040161079e90612199565b60405180910390fd5b600080600083815260200190815260200160002060000154036107ff576040517f08c379a00000000000000000000000000000000000000000000000000000000081526004016107f69061233f565b60405180910390fd5b600360008083815260200190815260200160002060060160006101000a81548160ff02191690836003811115610838576108376119b8565b5b021790555042600080838152602001908152602001600020600801819055503373ffffffffffffffffffffffffffffffffffffffff16817f16ad05ce3d778c4a2ba55f55814ad9f3e606fe0c042972def94655ed8e1c31cc600360405161089f919061235f565b60405180910390a350565b60008060008481526020019081526020016000206000015403610902576040517f08c379a00000000000000000000000000000000000000000000000000000000081526004016108f99061233f565b60405180910390fd5b3373ffffffffffffffffffffffffffffffffffffffff1660008084815260200190815260200160002060010160009054906101000a900473ffffffffffffffffffffffffffffffffffffffff1673ffffffffffffffffffffffffffffffffffffffff1614806109d157503373ffffffffffffffffffffffffffffffffffffffff1660008084815260200190815260200160002060020160009054906101000a900473ffffffffffffffffffffffffffffffffffffffff1673ffffffffffffffffffffffffffffffffffffffff16145b80610a4b57506001808111156109ea576109e96119b8565b5b600160003373ffffffffffffffffffffffffffffffffffffffff1673ffffffffffffffffffffffffffffffffffffffff16815260200190815260200160002060009054906101000a900460ff166001811115610a4957610a486119b8565b5b145b610a8a576040517f08c379a0000000000000000000000000000000000000000000000000000000008152600401610a81906123c6565b60405180910390fd5b8060008084815260200190815260200160002060060160006101000a81548160ff02191690836003811115610ac257610ac16119b8565b5b021790555042600080848152602001908152602001600020600801819055503373ffffffffffffffffffffffffffffffffffffffff16827f16ad05ce3d778c4a2ba55f55814ad9f3e606fe0c042972def94655ed8e1c31cc83604051610b28919061235f565b60405180910390a35050565b60008060026000815480929190610b4a906122ab565b9190505590506040518061012001604052808281526020013373ffffffffffffffffffffffffffffffffffffffff168152602001600073ffffffffffffffffffffffffffffffffffffffff16815260200186815260200185815260200184815260200160006003811115610bc157610bc06119b8565b5b8152602001428152602001428152506000808381526020019081526020016000206000820151816000015560208201518160010160006101000a81548173ffffffffffffffffffffffffffffffffffffffff021916908373ffffffffffffffffffffffffffffffffffffffff16021790555060408201518160020160006101000a81548173ffffffffffffffffffffffffffffffffffffffff021916908373ffffffffffffffffffffffffffffffffffffffff1602179055506060820151816003019081610c8f9190612592565b506080820151816004019081610ca59190612592565b5060a0820151816005019081610cbb9190612592565b5060c08201518160060160006101000a81548160ff02191690836003811115610ce757610ce66119b8565b5b021790555060e0820151816007015561010082015181600801559050503373ffffffffffffffffffffffffffffffffffffffff16817f0484f94842646b419a0e924ba515b27093fce72662146119168089c5279dd3e487604051610d4b9190612664565b60405180910390a3809150509392505050565b600180811115610d7157610d706119b8565b5b600160003373ffffffffffffffffffffffffffffffffffffffff1673ffffffffffffffffffffffffffffffffffffffff16815260200190815260200160002060009054906101000a900460ff166001811115610dd057610dcf6119b8565b5b14610e10576040517f08c379a0000000000000000000000000000000000000000000000000000000008152600401610e0790612199565b60405180910390fd5b60008060008381526020019081526020016000206000015403610e68576040517f08c379a0000000000000000000000000000000000000000000000000000000008152600401610e5f9061233f565b60405180910390fd5b600260008083815260200190815260200160002060060160006101000a81548160ff02191690836003811115610ea157610ea06119b8565b5b021790555042600080838152602001908152602001600020600801819055503373ffffffffffffffffffffffffffffffffffffffff16817f16ad05ce3d778c4a2ba55f55814ad9f3e606fe0c042972def94655ed8e1c31cc6002604051610f08919061235f565b60405180910390a350565b60006020528060005260406000206000915090508060000154908060010160009054906101000a900473ffffffffffffffffffffffffffffffffffffffff16908060020160009054906101000a900473ffffffffffffffffffffffffffffffffffffffff1690806003018054610f889061224b565b80601f0160208091040260200160405190810160405280929190818152602001828054610fb49061224b565b80156110015780601f10610fd657610100808354040283529160200191611001565b820191906000526020600020905b815481529060010190602001808311610fe457829003601f168201915b5050505050908060040180546110169061224b565b80601f01602080910402602001604051908101604052809291908181526020018280546110429061224b565b801561108f5780601f106110645761010080835404028352916020019161108f565b820191906000526020600020905b81548152906001019060200180831161107257829003601f168201915b5050505050908060050180546110a49061224b565b80601f01602080910402602001604051908101604052809291908181526020018280546110d09061224b565b801561111d5780601f106110f25761010080835404028352916020019161111d565b820191906000526020600020905b81548152906001019060200180831161110057829003601f168201915b5050505050908060060160009054906101000a900460ff16908060070154908060080154905089565b60025481565b60016020528060005260406000206000915054906101000a900460ff1681565b611174611773565b600080600084815260200190815260200160002060000154036111cc576040517f08c379a00000000000000000000000000000000000000000000000000000000081526004016111c39061233f565b60405180910390fd5b60008083815260200190815260200160002060405180610120016040529081600082015481526020016001820160009054906101000a900473ffffffffffffffffffffffffffffffffffffffff1673ffffffffffffffffffffffffffffffffffffffff1673ffffffffffffffffffffffffffffffffffffffff1681526020016002820160009054906101000a900473ffffffffffffffffffffffffffffffffffffffff1673ffffffffffffffffffffffffffffffffffffffff1673ffffffffffffffffffffffffffffffffffffffff1681526020016003820180546112b09061224b565b80601f01602080910402602001604051908101604052809291908181526020018280546112dc9061224b565b80156113295780601f106112fe57610100808354040283529160200191611329565b820191906000526020600020905b81548152906001019060200180831161130c57829003601f168201915b505050505081526020016004820180546113429061224b565b80601f016020809104026020016040519081016040528092919081815260200182805461136e9061224b565b80156113bb5780601f10611390576101008083540402835291602001916113bb565b820191906000526020600020905b81548152906001019060200180831161139e57829003601f168201915b505050505081526020016005820180546113d49061224b565b80601f01602080910402602001604051908101604052809291908181526020018280546114009061224b565b801561144d5780601f106114225761010080835404028352916020019161144d565b820191906000526020600020905b81548152906001019060200180831161143057829003601f168201915b505050505081526020016006820160009054906101000a900460ff16600381111561147b5761147a6119b8565b5b600381111561148d5761148c6119b8565b5b8152602001600782015481526020016008820154815250509050919050565b6001808111156114bf576114be6119b8565b5b600160003373ffffffffffffffffffffffffffffffffffffffff1673ffffffffffffffffffffffffffffffffffffffff16815260200190815260200160002060009054906101000a900460ff16600181111561151e5761151d6119b8565b5b1461155e576040517f08c379a000000000000000000000000000000000000000000000000000000000815260040161155590612199565b60405180910390fd5b600080600084815260200190815260200160002060000154036115b6576040517f08c379a00000000000000000000000000000000000000000000000000000000081526004016115ad9061233f565b60405180910390fd5b6001808111156115c9576115c86119b8565b5b600160008373ffffffffffffffffffffffffffffffffffffffff1673ffffffffffffffffffffffffffffffffffffffff16815260200190815260200160002060009054906101000a900460ff166001811115611628576116276119b8565b5b14611668576040517f08c379a000000000000000000000000000000000000000000000000000000000815260040161165f906126d2565b60405180910390fd5b8060008084815260200190815260200160002060020160006101000a81548173ffffffffffffffffffffffffffffffffffffffff021916908373ffffffffffffffffffffffffffffffffffffffff160217905550600160008084815260200190815260200160002060060160006101000a81548160ff021916908360038111156116f5576116f46119b8565b5b021790555042600080848152602001908152602001600020600801819055503373ffffffffffffffffffffffffffffffffffffffff168173ffffffffffffffffffffffffffffffffffffffff16837f8d3c7befb49ab350236403d9b04285dc4e50be6876ec1e0998ff7363e4e388b260405160405180910390a45050565b60405180610120016040528060008152602001600073ffffffffffffffffffffffffffffffffffffffff168152602001600073ffffffffffffffffffffffffffffffffffffffff168152602001606081526020016060815260200160608152602001600060038111156117e9576117e86119b8565b5b815260200160008152602001600081525090565b6000604051905090565b600080fd5b600080fd5b600073ffffffffffffffffffffffffffffffffffffffff82169050919050565b600061183c82611811565b9050919050565b61184c81611831565b811461185757600080fd5b50565b60008135905061186981611843565b92915050565b6002811061187c57600080fd5b50565b60008135905061188e8161186f565b92915050565b600080604083850312156118ab576118aa611807565b5b60006118b98582860161185a565b92505060206118ca8582860161187f565b9150509250929050565b600081519050919050565b600082825260208201905092915050565b6000819050602082019050919050565b6000819050919050565b61191381611900565b82525050565b61192281611831565b82525050565b600081519050919050565b600082825260208201905092915050565b60005b83811015611962578082015181840152602081019050611947565b60008484015250505050565b6000601f19601f8301169050919050565b600061198a82611928565b6119948185611933565b93506119a4818560208601611944565b6119ad8161196e565b840191505092915050565b7f4e487b7100000000000000000000000000000000000000000000000000000000600052602160045260246000fd5b600481106119f8576119f76119b8565b5b50565b6000819050611a09826119e7565b919050565b6000611a19826119fb565b9050919050565b611a2981611a0e565b82525050565b600061012083016000830151611a48600086018261190a565b506020830151611a5b6020860182611919565b506040830151611a6e6040860182611919565b5060608301518482036060860152611a86828261197f565b91505060808301518482036080860152611aa0828261197f565b91505060a083015184820360a0860152611aba828261197f565b91505060c0830151611acf60c0860182611a20565b5060e0830151611ae260e086018261190a565b50610100830151611af761010086018261190a565b508091505092915050565b6000611b0e8383611a2f565b905092915050565b6000602082019050919050565b6000611b2e826118d4565b611b3881856118df565b935083602082028501611b4a856118f0565b8060005b85811015611b865784840389528151611b678582611b02565b9450611b7283611b16565b925060208a01995050600181019050611b4e565b50829750879550505050505092915050565b60006020820190508181036000830152611bb28184611b23565b905092915050565b611bc381611900565b8114611bce57600080fd5b50565b600081359050611be081611bba565b92915050565b600060208284031215611bfc57611bfb611807565b5b6000611c0a84828501611bd1565b91505092915050565b60048110611c2057600080fd5b50565b600081359050611c3281611c13565b92915050565b60008060408385031215611c4f57611c4e611807565b5b6000611c5d85828601611bd1565b9250506020611c6e85828601611c23565b9150509250929050565b600080fd5b600080fd5b7f4e487b7100000000000000000000000000000000000000000000000000000000600052604160045260246000fd5b611cba8261196e565b810181811067ffffffffffffffff82111715611cd957611cd8611c82565b5b80604052505050565b6000611cec6117fd565b9050611cf88282611cb1565b919050565b600067ffffffffffffffff821115611d1857611d17611c82565b5b611d218261196e565b9050602081019050919050565b82818337600083830152505050565b6000611d50611d4b84611cfd565b611ce2565b905082815260208101848484011115611d6c57611d6b611c7d565b5b611d77848285611d2e565b509392505050565b600082601f830112611d9457611d93611c78565b5b8135611da4848260208601611d3d565b91505092915050565b600080600060608486031215611dc657611dc5611807565b5b600084013567ffffffffffffffff811115611de457611de361180c565b5b611df086828701611d7f565b935050602084013567ffffffffffffffff811115611e1157611e1061180c565b5b611e1d86828701611d7f565b925050604084013567ffffffffffffffff811115611e3e57611e3d61180c565b5b611e4a86828701611d7f565b9150509250925092565b611e5d81611900565b82525050565b6000602082019050611e786000830184611e54565b92915050565b611e8781611831565b82525050565b600082825260208201905092915050565b6000611ea982611928565b611eb38185611e8d565b9350611ec3818560208601611944565b611ecc8161196e565b840191505092915050565b611ee081611a0e565b82525050565b600061012082019050611efc600083018c611e54565b611f09602083018b611e7e565b611f16604083018a611e7e565b8181036060830152611f288189611e9e565b90508181036080830152611f3c8188611e9e565b905081810360a0830152611f508187611e9e565b9050611f5f60c0830186611ed7565b611f6c60e0830185611e54565b611f7a610100830184611e54565b9a9950505050505050505050565b600060208284031215611f9e57611f9d611807565b5b6000611fac8482850161185a565b91505092915050565b60028110611fc657611fc56119b8565b5b50565b6000819050611fd782611fb5565b919050565b6000611fe782611fc9565b9050919050565b611ff781611fdc565b82525050565b60006020820190506120126000830184611fee565b92915050565b600061012083016000830151612031600086018261190a565b5060208301516120446020860182611919565b5060408301516120576040860182611919565b506060830151848203606086015261206f828261197f565b91505060808301518482036080860152612089828261197f565b91505060a083015184820360a08601526120a3828261197f565b91505060c08301516120b860c0860182611a20565b5060e08301516120cb60e086018261190a565b506101008301516120e061010086018261190a565b508091505092915050565b600060208201905081810360008301526121058184612018565b905092915050565b6000806040838503121561212457612123611807565b5b600061213285828601611bd1565b92505060206121438582860161185a565b9150509250929050565b7f4e6f7420617574686f72697a65643a204d616e61676572206f6e6c7900000000600082015250565b6000612183601c83611e8d565b915061218e8261214d565b602082019050919050565b600060208201905081810360008301526121b281612176565b9050919050565b7f4e487b7100000000000000000000000000000000000000000000000000000000600052601160045260246000fd5b60006121f382611900565b91506121fe83611900565b9250828203905081811115612216576122156121b9565b5b92915050565b7f4e487b7100000000000000000000000000000000000000000000000000000000600052602260045260246000fd5b6000600282049050600182168061226357607f821691505b6020821081036122765761227561221c565b5b50919050565b7f4e487b7100000000000000000000000000000000000000000000000000000000600052603260045260246000fd5b60006122b682611900565b91507fffffffffffffffffffffffffffffffffffffffffffffffffffffffffffffffff82036122e8576122e76121b9565b5b600182019050919050565b7f5469636b657420646f6573206e6f742065786973740000000000000000000000600082015250565b6000612329601583611e8d565b9150612334826122f3565b602082019050919050565b600060208201905081810360008301526123588161231c565b9050919050565b60006020820190506123746000830184611ed7565b92915050565b7f4e6f7420617574686f72697a6564000000000000000000000000000000000000600082015250565b60006123b0600e83611e8d565b91506123bb8261237a565b602082019050919050565b600060208201905081810360008301526123df816123a3565b9050919050565b60008190508160005260206000209050919050565b60006020601f8301049050919050565b600082821b905092915050565b6000600883026124487fffffffffffffffffffffffffffffffffffffffffffffffffffffffffffffffff8261240b565b612452868361240b565b95508019841693508086168417925050509392505050565b6000819050919050565b600061248f61248a61248584611900565b61246a565b611900565b9050919050565b6000819050919050565b6124a983612474565b6124bd6124b582612496565b848454612418565b825550505050565b600090565b6124d26124c5565b6124dd8184846124a0565b505050565b5b81811015612501576124f66000826124ca565b6001810190506124e3565b5050565b601f82111561254657612517816123e6565b612520846123fb565b8101602085101561252f578190505b61254361253b856123fb565b8301826124e2565b50505b505050565b600082821c905092915050565b60006125696000198460080261254b565b1980831691505092915050565b60006125828383612558565b9150826002028217905092915050565b61259b82611928565b67ffffffffffffffff8111156125b4576125b3611c82565b5b6125be825461224b565b6125c9828285612505565b600060209050601f8311600181146125fc57600084156125ea578287015190505b6125f48582612576565b86555061265c565b601f19841661260a866123e6565b60005b828110156126325784890151825560018201915060208501945060208101905061260d565b8683101561264f578489015161264b601f891682612558565b8355505b6001600288020188555050505b505050505050565b6000602082019050818103600083015261267e8184611e9e565b905092915050565b7f43616e206f6e6c792061737369676e20746f204d616e61676572730000000000600082015250565b60006126bc601b83611e8d565b91506126c782612686565b602082019050919050565b600060208201905081810360008301526126eb816126af565b905091905056fea2646970667358221220234b72e69b97b57437e9dc3ac7d959b31aaff6c77ddfdc0006f9227d871b011a64736f6c63430008130033",
  "immutableReferences": {},
  "source": "// SPDX-License-Identifier: MIT\r\npragma solidity ^0.8.19;\r\n\r\ncontract BlockDesk {\r\n    enum TicketStatus { Open, InProgress, Resolved, Closed }\r\n    enum UserRole { User, Manager }\r\n    \r\n    struct Ticket {\r\n        uint256 id;\r\n        address creator;\r\n        address assignedTo; // Changed from assignedAgent\r\n        string title;\r\n        string description;\r\n        string attachmentHash;\r\n        TicketStatus status;\r\n        uint256 createdAt;\r\n        uint256 updatedAt;\r\n    }\r\n    \r\n    mapping(uint256 => Ticket) public tickets;\r\n    mapping(address => UserRole) public userRoles;\r\n    uint256 public nextTicketId = 1;\r\n    \r\n    event TicketCreated(uint256 indexed ticketId, address indexed creator, string title);\r\n    event StatusUpdated(uint256 indexed ticketId, TicketStatus status, address indexed updater);\r\n    event TicketAssigned(uint256 indexed ticketId, address indexed assignee, address indexed assigner);\r\n    \r\n    constructor() {\r\n        userRoles[msg.sender] = UserRole.Manager; // Contract deployer is manager\r\n    }\r\n    \r\n    modifier onlyManager() {\r\n        require(userRoles[msg.sender] == UserRole.Manager, \"Not authorized: Manager only\");\r\n        _;\r\n    }\r\n    \r\n    function createTicket(\r\n        string memory title,\r\n        string memory description,\r\n        string memory attachmentHash\r\n    ) external returns (uint256) {\r\n        uint256 ticketId = nextTicketId++;\r\n        \r\n        tickets[ticketId] = Ticket({\r\n            id: ticketId,\r\n            creator: msg.sender,\r\n            assignedTo: address(0),\r\n            title: title,\r\n            description: description,\r\n            attachmentHash: attachmentHash,\r\n            status: TicketStatus.Open,\r\n            createdAt: block.timestamp,\r\n            updatedAt: block.timestamp\r\n        });\r\n        \r\n        emit TicketCreated(ticketId, msg.sender, title);\r\n        return ticketId;\r\n    }\r\n    \r\n    function updateStatus(uint256 ticketId, TicketStatus status) external {\r\n        require(tickets[ticketId].id != 0, \"Ticket does not exist\");\r\n        require(\r\n            tickets[ticketId].creator == msg.sender ||\r\n            tickets[ticketId].assignedTo == msg.sender ||\r\n            userRoles[msg.sender] == UserRole.Manager,\r\n            \"Not authorized\"\r\n        );\r\n        \r\n        tickets[ticketId].status = status;\r\n        tickets[ticketId].updatedAt = block.timestamp;\r\n        \r\n        emit StatusUpdated(ticketId, status, msg.sender);\r\n    }\r\n    \r\n    // Only Managers can be assigned tickets now\r\n    function assignTicket(uint256 ticketId, address assignee) external onlyManager {\r\n        require(tickets[ticketId].id != 0, \"Ticket does not exist\");\r\n        // Ensure the assignee is a Manager (or allow assigning to self if Manager)\r\n        require(userRoles[assignee] == UserRole.Manager, \"Can only assign to Managers\");\r\n        \r\n        tickets[ticketId].assignedTo = assignee;\r\n        tickets[ticketId].status = TicketStatus.InProgress;\r\n        tickets[ticketId].updatedAt = block.timestamp;\r\n        \r\n        emit TicketAssigned(ticketId, assignee, msg.sender);\r\n    }\r\n\r\n    // Only Managers can resolve tickets\r\n    function resolveTicket(uint256 ticketId) external onlyManager {\r\n        require(tickets[ticketId].id != 0, \"Ticket does not exist\");\r\n        tickets[ticketId].status = TicketStatus.Resolved;\r\n        tickets[ticketId].updatedAt = block.timestamp;\r\n        emit StatusUpdated(ticketId, TicketStatus.Resolved, msg.sender);\r\n    }\r\n\r\n    function closeTicket(uint256 ticketId) external onlyManager {\r\n        require(tickets[ticketId].id != 0, \"Ticket does not exist\");\r\n        tickets[ticketId].status = TicketStatus.Closed;\r\n        tickets[ticketId].updatedAt = block.timestamp;\r\n        emit StatusUpdated(ticketId, TicketStatus.Closed, msg.sender);\r\n    }\r\n    \r\n    function setUserRole(address user, UserRole role) external onlyManager {\r\n        userRoles[user] = role;\r\n    }\r\n    \r\n    function getTicket(uint256 ticketId) external view returns (Ticket memory) {\r\n        require(tickets[ticketId].id != 0, \"Ticket does not exist\");\r\n        return tickets[ticketId];\r\n    }\r\n\r\n    function getAllTickets() external view returns (Ticket[] memory) {\r\n        uint256 count = nextTicketId - 1;\r\n        Ticket[] memory allTickets = new Ticket[](count);\r\n        \r\n        for (uint256 i = 1; i <= count; i++) {\r\n            allTickets[i - 1] = tickets[i];\r\n        }\r\n        \r\n        return allTickets;\r\n    }\r\n}",
  "sourcePath": "C:\\Users\\Chris\\BlockDesk\\blockchain\\contracts\\BlockDesk.sol",
  "compiler": {
    "name": "solc",
    "version": "0.8.19+commit.7dd6d404.Emscripten.clang"
  },
  "schemaVersion": "3.4.16",
  "updatedAt": "2025-11-29T05:40:55.210Z",
  "networkType": "ethereum",
  "devdoc": {
    "kind": "dev",
    "methods": {},
    "version": 1
  },
  "userdoc": {
    "kind": "user",
    "methods": {},
    "version": 1
  }
}