{
  "contractName": "BlockDesk",
  "abi": [
    {
      "inputs": [],
      "stateMutability": "nonpayable",
      "type": "constructor"
    },
    {
      "anonymous": false,
      "inputs": [
        {
          "indexed": true,
          "internalType": "uint256",
          "name": "ticketId",
          "type": "uint256"
        },
        {
          "indexed": true,
          "internalType": "uint256",
          "name": "commentId",
          "type": "uint256"
        },
        {
          "indexed": true,
          "internalType": "address",
          "name": "author",
          "type": "address"
        }
      ],
      "name": "CommentAdded",
      "type": "event"
    },
    {
      "anonymous": false,
      "inputs": [
        {
          "indexed": true,
          "internalType": "uint256",
          "name": "ticketId",
          "type": "uint256"
        },
        {
          "indexed": false,
          "internalType": "enum BlockDesk.TicketStatus",
          "name": "status",
          "type": "uint8"
        },
        {
          "indexed": true,
          "internalType": "address",
          "name": "updater",
          "type": "address"
        }
      ],
      "name": "StatusUpdated",
      "type": "event"
    },
    {
      "anonymous": false,
      "inputs": [
        {
          "indexed": true,
          "internalType": "uint256",
          "name": "ticketId",
          "type": "uint256"
        },
        {
          "indexed": true,
          "internalType": "address",
          "name": "assignee",
          "type": "address"
        },
        {
          "indexed": true,
          "internalType": "address",
          "name": "assigner",
          "type": "address"
        }
      ],
      "name": "TicketAssigned",
      "type": "event"
    },
    {
      "anonymous": false,
      "inputs": [
        {
          "indexed": true,
          "internalType": "uint256",
          "name": "ticketId",
          "type": "uint256"
        },
        {
          "indexed": true,
          "internalType": "address",
          "name": "creator",
          "type": "address"
        },
        {
          "indexed": false,
          "internalType": "string",
          "name": "title",
          "type": "string"
        }
      ],
      "name": "TicketCreated",
      "type": "event"
    },
    {
      "anonymous": false,
      "inputs": [
        {
          "indexed": true,
          "internalType": "uint256",
          "name": "ticketId",
          "type": "uint256"
        },
        {
          "indexed": true,
          "internalType": "address",
          "name": "reopener",
          "type": "address"
        }
      ],
      "name": "TicketReopened",
      "type": "event"
    },
    {
      "inputs": [],
      "name": "nextCommentId",
      "outputs": [
        {
          "internalType": "uint256",
          "name": "",
          "type": "uint256"
        }
      ],
      "stateMutability": "view",
      "type": "function",
      "constant": true
    },
    {
      "inputs": [],
      "name": "nextTicketId",
      "outputs": [
        {
          "internalType": "uint256",
          "name": "",
          "type": "uint256"
        }
      ],
      "stateMutability": "view",
      "type": "function",
      "constant": true
    },
    {
      "inputs": [
        {
          "internalType": "uint256",
          "name": "",
          "type": "uint256"
        },
        {
          "internalType": "uint256",
          "name": "",
          "type": "uint256"
        }
      ],
      "name": "ticketComments",
      "outputs": [
        {
          "internalType": "uint256",
          "name": "id",
          "type": "uint256"
        },
        {
          "internalType": "uint256",
          "name": "ticketId",
          "type": "uint256"
        },
        {
          "internalType": "address",
          "name": "author",
          "type": "address"
        },
        {
          "internalType": "string",
          "name": "content",
          "type": "string"
        },
        {
          "internalType": "uint256",
          "name": "createdAt",
          "type": "uint256"
        }
      ],
      "stateMutability": "view",
      "type": "function",
      "constant": true
    },
    {
      "inputs": [
        {
          "internalType": "uint256",
          "name": "",
          "type": "uint256"
        }
      ],
      "name": "tickets",
      "outputs": [
        {
          "internalType": "uint256",
          "name": "id",
          "type": "uint256"
        },
        {
          "internalType": "address",
          "name": "creator",
          "type": "address"
        },
        {
          "internalType": "address",
          "name": "assignedTo",
          "type": "address"
        },
        {
          "internalType": "string",
          "name": "title",
          "type": "string"
        },
        {
          "internalType": "string",
          "name": "description",
          "type": "string"
        },
        {
          "internalType": "string",
          "name": "attachmentHash",
          "type": "string"
        },
        {
          "internalType": "enum BlockDesk.TicketStatus",
          "name": "status",
          "type": "uint8"
        },
        {
          "internalType": "uint256",
          "name": "createdAt",
          "type": "uint256"
        },
        {
          "internalType": "uint256",
          "name": "updatedAt",
          "type": "uint256"
        }
      ],
      "stateMutability": "view",
      "type": "function",
      "constant": true
    },
    {
      "inputs": [
        {
          "internalType": "address",
          "name": "",
          "type": "address"
        }
      ],
      "name": "userRoles",
      "outputs": [
        {
          "internalType": "enum BlockDesk.UserRole",
          "name": "",
          "type": "uint8"
        }
      ],
      "stateMutability": "view",
      "type": "function",
      "constant": true
    },
    {
      "inputs": [
        {
          "internalType": "string",
          "name": "title",
          "type": "string"
        },
        {
          "internalType": "string",
          "name": "description",
          "type": "string"
        },
        {
          "internalType": "string",
          "name": "attachmentHash",
          "type": "string"
        }
      ],
      "name": "createTicket",
      "outputs": [
        {
          "internalType": "uint256",
          "name": "",
          "type": "uint256"
        }
      ],
      "stateMutability": "nonpayable",
      "type": "function"
    },
    {
      "inputs": [
        {
          "internalType": "uint256",
          "name": "ticketId",
          "type": "uint256"
        },
        {
          "internalType": "enum BlockDesk.TicketStatus",
          "name": "status",
          "type": "uint8"
        }
      ],
      "name": "updateStatus",
      "outputs": [],
      "stateMutability": "nonpayable",
      "type": "function"
    },
    {
      "inputs": [
        {
          "internalType": "uint256",
          "name": "ticketId",
          "type": "uint256"
        },
        {
          "internalType": "address",
          "name": "assignee",
          "type": "address"
        }
      ],
      "name": "assignTicket",
      "outputs": [],
      "stateMutability": "nonpayable",
      "type": "function"
    },
    {
      "inputs": [
        {
          "internalType": "uint256",
          "name": "ticketId",
          "type": "uint256"
        }
      ],
      "name": "resolveTicket",
      "outputs": [],
      "stateMutability": "nonpayable",
      "type": "function"
    },
    {
      "inputs": [
        {
          "internalType": "uint256",
          "name": "ticketId",
          "type": "uint256"
        }
      ],
      "name": "closeTicket",
      "outputs": [],
      "stateMutability": "nonpayable",
      "type": "function"
    },
    {
      "inputs": [
        {
          "internalType": "uint256",
          "name": "ticketId",
          "type": "uint256"
        }
      ],
      "name": "reopenTicket",
      "outputs": [],
      "stateMutability": "nonpayable",
      "type": "function"
    },
    {
      "inputs": [
        {
          "internalType": "uint256",
          "name": "ticketId",
          "type": "uint256"
        },
        {
          "internalType": "string",
          "name": "content",
          "type": "string"
        }
      ],
      "name": "addComment",
      "outputs": [],
      "stateMutability": "nonpayable",
      "type": "function"
    },
    {
      "inputs": [
        {
          "internalType": "uint256",
          "name": "ticketId",
          "type": "uint256"
        }
      ],
      "name": "getTicketComments",
      "outputs": [
        {
          "components": [
            {
              "internalType": "uint256",
              "name": "id",
              "type": "uint256"
            },
            {
              "internalType": "uint256",
              "name": "ticketId",
              "type": "uint256"
            },
            {
              "internalType": "address",
              "name": "author",
              "type": "address"
            },
            {
              "internalType": "string",
              "name": "content",
              "type": "string"
            },
            {
              "internalType": "uint256",
              "name": "createdAt",
              "type": "uint256"
            }
          ],
          "internalType": "struct BlockDesk.Comment[]",
          "name": "",
          "type": "tuple[]"
        }
      ],
      "stateMutability": "view",
      "type": "function",
      "constant": true
    },
    {
      "inputs": [
        {
          "internalType": "address",
          "name": "user",
          "type": "address"
        },
        {
          "internalType": "enum BlockDesk.UserRole",
          "name": "role",
          "type": "uint8"
        }
      ],
      "name": "setUserRole",
      "outputs": [],
      "stateMutability": "nonpayable",
      "type": "function"
    },
    {
      "inputs": [
        {
          "internalType": "uint256",
          "name": "ticketId",
          "type": "uint256"
        }
      ],
      "name": "getTicket",
      "outputs": [
        {
          "components": [
            {
              "internalType": "uint256",
              "name": "id",
              "type": "uint256"
            },
            {
              "internalType": "address",
              "name": "creator",
              "type": "address"
            },
            {
              "internalType": "address",
              "name": "assignedTo",
              "type": "address"
            },
            {
              "internalType": "string",
              "name": "title",
              "type": "string"
            },
            {
              "internalType": "string",
              "name": "description",
              "type": "string"
            },
            {
              "internalType": "string",
              "name": "attachmentHash",
              "type": "string"
            },
            {
              "internalType": "enum BlockDesk.TicketStatus",
              "name": "status",
              "type": "uint8"
            },
            {
              "internalType": "uint256",
              "name": "createdAt",
              "type": "uint256"
            },
            {
              "internalType": "uint256",
              "name": "updatedAt",
              "type": "uint256"
            }
          ],
          "internalType": "struct BlockDesk.Ticket",
          "name": "",
          "type": "tuple"
        }
      ],
      "stateMutability": "view",
      "type": "function",
      "constant": true
    },
    {
      "inputs": [],
      "name": "getAllTickets",
      "outputs": [
        {
          "components": [
            {
              "internalType": "uint256",
              "name": "id",
              "type": "uint256"
            },
            {
              "internalType": "address",
              "name": "creator",
              "type": "address"
            },
            {
              "internalType": "address",
              "name": "assignedTo",
              "type": "address"
            },
            {
              "internalType": "string",
              "name": "title",
              "type": "string"
            },
            {
              "internalType": "string",
              "name": "description",
              "type": "string"
            },
            {
              "internalType": "string",
              "name": "attachmentHash",
              "type": "string"
            },
            {
              "internalType": "enum BlockDesk.TicketStatus",
              "name": "status",
              "type": "uint8"
            },
            {
              "internalType": "uint256",
              "name": "createdAt",
              "type": "uint256"
            },
            {
              "internalType": "uint256",
              "name": "updatedAt",
              "type": "uint256"
            }
          ],
          "internalType": "struct BlockDesk.Ticket[]",
          "name": "",
          "type": "tuple[]"
        }
      ],
      "stateMutability": "view",
      "type": "function",
      "constant": true
    }
  ],
  "bytecode": "0x6080604052600160035560016004553480156200001b57600080fd5b5060018060003373ffffffffffffffffffffffffffffffffffffffff1673ffffffffffffffffffffffffffffffffffffffff16815260200190815260200160002060006101000a81548160ff021916908360018111156200008157620000806200008c565b5b0217905550620000bb565b7f4e487b7100000000000000000000000000000000000000000000000000000000600052602160045260246000fd5b61332c80620000cb6000396000f3fe608060405234801561001057600080fd5b50600436106101005760003560e01c806374d5e100116100975780639b60d0a5116100665780639b60d0a5146102c9578063a470b27d146102f9578063aa7e568314610315578063d0bdacbe1461033157610100565b806374d5e1001461021957806378ef0c3f146102495780637dc379fa1461027d5780638d9ab05b146102ad57610100565b80633dc261f9116100d35780633dc261f91461017757806345d8c786146101a757806350b44712146101c35780636031a52f146101fb57610100565b806303a696111461010557806303e96fe31461012157806320e14e491461013f5780633a1b3d311461015b575b600080fd5b61011f600480360381019061011a919061214a565b61034f565b005b61012961046c565b604051610136919061244e565b60405180910390f35b6101596004803603810190610154919061249c565b610806565b005b610175600480360381019061017091906124ee565b6109bb565b005b610191600480360381019061018c9190612663565b610c45565b60405161019e9190612719565b60405180910390f35b6101c160048036038101906101bc919061249c565b610e6f565b005b6101dd60048036038101906101d8919061249c565b611024565b6040516101f29998979695949392919061279c565b60405180910390f35b610203611257565b6040516102109190612719565b60405180910390f35b610233600480360381019061022e919061283e565b61125d565b60405161024091906128b3565b60405180910390f35b610263600480360381019061025e91906128ce565b61127d565b60405161027495949392919061290e565b60405180910390f35b6102976004803603810190610292919061249c565b611378565b6040516102a49190612a3b565b60405180910390f35b6102c760048036038101906102c29190612a5d565b6116b8565b005b6102e360048036038101906102de919061249c565b61197f565b6040516102f09190612bd5565b60405180910390f35b610313600480360381019061030e919061249c565b611b4f565b005b61032f600480360381019061032a9190612bf7565b611e26565b005b610339612023565b6040516103469190612719565b60405180910390f35b6001808111156103625761036161226e565b5b600160003373ffffffffffffffffffffffffffffffffffffffff1673ffffffffffffffffffffffffffffffffffffffff16815260200190815260200160002060009054906101000a900460ff1660018111156103c1576103c061226e565b5b14610401576040517f08c379a00000000000000000000000000000000000000000000000000000000081526004016103f890612c9f565b60405180910390fd5b80600160008473ffffffffffffffffffffffffffffffffffffffff1673ffffffffffffffffffffffffffffffffffffffff16815260200190815260200160002060006101000a81548160ff021916908360018111156104635761046261226e565b5b02179055505050565b60606000600160035461047f9190612cee565b905060008167ffffffffffffffff81111561049d5761049c612538565b5b6040519080825280602002602001820160405280156104d657816020015b6104c3612029565b8152602001906001900390816104bb5790505b5090506000600190505b8281116107fd5760008082815260200190815260200160002060405180610120016040529081600082015481526020016001820160009054906101000a900473ffffffffffffffffffffffffffffffffffffffff1673ffffffffffffffffffffffffffffffffffffffff1673ffffffffffffffffffffffffffffffffffffffff1681526020016002820160009054906101000a900473ffffffffffffffffffffffffffffffffffffffff1673ffffffffffffffffffffffffffffffffffffffff1673ffffffffffffffffffffffffffffffffffffffff1681526020016003820180546105cb90612d51565b80601f01602080910402602001604051908101604052809291908181526020018280546105f790612d51565b80156106445780601f1061061957610100808354040283529160200191610644565b820191906000526020600020905b81548152906001019060200180831161062757829003601f168201915b5050505050815260200160048201805461065d90612d51565b80601f016020809104026020016040519081016040528092919081815260200182805461068990612d51565b80156106d65780601f106106ab576101008083540402835291602001916106d6565b820191906000526020600020905b8154815290600101906020018083116106b957829003601f168201915b505050505081526020016005820180546106ef90612d51565b80601f016020809104026020016040519081016040528092919081815260200182805461071b90612d51565b80156107685780601f1061073d57610100808354040283529160200191610768565b820191906000526020600020905b81548152906001019060200180831161074b57829003601f168201915b505050505081526020016006820160009054906101000a900460ff1660038111156107965761079561226e565b5b60038111156107a8576107a761226e565b5b815260200160078201548152602001600882015481525050826001836107ce9190612cee565b815181106107df576107de612d82565b5b602002602001018190525080806107f590612db1565b9150506104e0565b50809250505090565b6001808111156108195761081861226e565b5b600160003373ffffffffffffffffffffffffffffffffffffffff1673ffffffffffffffffffffffffffffffffffffffff16815260200190815260200160002060009054906101000a900460ff1660018111156108785761087761226e565b5b146108b8576040517f08c379a00000000000000000000000000000000000000000000000000000000081526004016108af90612c9f565b60405180910390fd5b60008060008381526020019081526020016000206000015403610910576040517f08c379a000000000000000000000000000000000000000000000000000000000815260040161090790612e45565b60405180910390fd5b600360008083815260200190815260200160002060060160006101000a81548160ff021916908360038111156109495761094861226e565b5b021790555042600080838152602001908152602001600020600801819055503373ffffffffffffffffffffffffffffffffffffffff16817f16ad05ce3d778c4a2ba55f55814ad9f3e606fe0c042972def94655ed8e1c31cc60036040516109b09190612e65565b60405180910390a350565b60008060008481526020019081526020016000206000015403610a13576040517f08c379a0000000000000000000000000000000000000000000000000000000008152600401610a0a90612e45565b60405180910390fd5b3373ffffffffffffffffffffffffffffffffffffffff1660008084815260200190815260200160002060010160009054906101000a900473ffffffffffffffffffffffffffffffffffffffff1673ffffffffffffffffffffffffffffffffffffffff161480610ae257503373ffffffffffffffffffffffffffffffffffffffff1660008084815260200190815260200160002060020160009054906101000a900473ffffffffffffffffffffffffffffffffffffffff1673ffffffffffffffffffffffffffffffffffffffff16145b80610b5c5750600180811115610afb57610afa61226e565b5b600160003373ffffffffffffffffffffffffffffffffffffffff1673ffffffffffffffffffffffffffffffffffffffff16815260200190815260200160002060009054906101000a900460ff166001811115610b5a57610b5961226e565b5b145b610b9b576040517f08c379a0000000000000000000000000000000000000000000000000000000008152600401610b9290612ecc565b60405180910390fd5b8060008084815260200190815260200160002060060160006101000a81548160ff02191690836003811115610bd357610bd261226e565b5b021790555042600080848152602001908152602001600020600801819055503373ffffffffffffffffffffffffffffffffffffffff16827f16ad05ce3d778c4a2ba55f55814ad9f3e606fe0c042972def94655ed8e1c31cc83604051610c399190612e65565b60405180910390a35050565b60008060036000815480929190610c5b90612db1565b9190505590506040518061012001604052808281526020013373ffffffffffffffffffffffffffffffffffffffff168152602001600073ffffffffffffffffffffffffffffffffffffffff16815260200186815260200185815260200184815260200160006003811115610cd257610cd161226e565b5b8152602001428152602001428152506000808381526020019081526020016000206000820151816000015560208201518160010160006101000a81548173ffffffffffffffffffffffffffffffffffffffff021916908373ffffffffffffffffffffffffffffffffffffffff16021790555060408201518160020160006101000a81548173ffffffffffffffffffffffffffffffffffffffff021916908373ffffffffffffffffffffffffffffffffffffffff1602179055506060820151816003019081610da09190613098565b506080820151816004019081610db69190613098565b5060a0820151816005019081610dcc9190613098565b5060c08201518160060160006101000a81548160ff02191690836003811115610df857610df761226e565b5b021790555060e0820151816007015561010082015181600801559050503373ffffffffffffffffffffffffffffffffffffffff16817f0484f94842646b419a0e924ba515b27093fce72662146119168089c5279dd3e487604051610e5c919061316a565b60405180910390a3809150509392505050565b600180811115610e8257610e8161226e565b5b600160003373ffffffffffffffffffffffffffffffffffffffff1673ffffffffffffffffffffffffffffffffffffffff16815260200190815260200160002060009054906101000a900460ff166001811115610ee157610ee061226e565b5b14610f21576040517f08c379a0000000000000000000000000000000000000000000000000000000008152600401610f1890612c9f565b60405180910390fd5b60008060008381526020019081526020016000206000015403610f79576040517f08c379a0000000000000000000000000000000000000000000000000000000008152600401610f7090612e45565b60405180910390fd5b600260008083815260200190815260200160002060060160006101000a81548160ff02191690836003811115610fb257610fb161226e565b5b021790555042600080838152602001908152602001600020600801819055503373ffffffffffffffffffffffffffffffffffffffff16817f16ad05ce3d778c4a2ba55f55814ad9f3e606fe0c042972def94655ed8e1c31cc60026040516110199190612e65565b60405180910390a350565b60006020528060005260406000206000915090508060000154908060010160009054906101000a900473ffffffffffffffffffffffffffffffffffffffff16908060020160009054906101000a900473ffffffffffffffffffffffffffffffffffffffff169080600301805461109990612d51565b80601f01602080910402602001604051908101604052809291908181526020018280546110c590612d51565b80156111125780601f106110e757610100808354040283529160200191611112565b820191906000526020600020905b8154815290600101906020018083116110f557829003601f168201915b50505050509080600401805461112790612d51565b80601f016020809104026020016040519081016040528092919081815260200182805461115390612d51565b80156111a05780601f10611175576101008083540402835291602001916111a0565b820191906000526020600020905b81548152906001019060200180831161118357829003601f168201915b5050505050908060050180546111b590612d51565b80601f01602080910402602001604051908101604052809291908181526020018280546111e190612d51565b801561122e5780601f106112035761010080835404028352916020019161122e565b820191906000526020600020905b81548152906001019060200180831161121157829003601f168201915b5050505050908060060160009054906101000a900460ff16908060070154908060080154905089565b60035481565b60016020528060005260406000206000915054906101000a900460ff1681565b6002602052816000526040600020818154811061129957600080fd5b9060005260206000209060050201600091509150508060000154908060010154908060020160009054906101000a900473ffffffffffffffffffffffffffffffffffffffff16908060030180546112ef90612d51565b80601f016020809104026020016040519081016040528092919081815260200182805461131b90612d51565b80156113685780601f1061133d57610100808354040283529160200191611368565b820191906000526020600020905b81548152906001019060200180831161134b57829003601f168201915b5050505050908060040154905085565b611380612029565b600080600084815260200190815260200160002060000154036113d8576040517f08c379a00000000000000000000000000000000000000000000000000000000081526004016113cf90612e45565b60405180910390fd5b60008083815260200190815260200160002060405180610120016040529081600082015481526020016001820160009054906101000a900473ffffffffffffffffffffffffffffffffffffffff1673ffffffffffffffffffffffffffffffffffffffff1673ffffffffffffffffffffffffffffffffffffffff1681526020016002820160009054906101000a900473ffffffffffffffffffffffffffffffffffffffff1673ffffffffffffffffffffffffffffffffffffffff1673ffffffffffffffffffffffffffffffffffffffff1681526020016003820180546114bc90612d51565b80601f01602080910402602001604051908101604052809291908181526020018280546114e890612d51565b80156115355780601f1061150a57610100808354040283529160200191611535565b820191906000526020600020905b81548152906001019060200180831161151857829003601f168201915b5050505050815260200160048201805461154e90612d51565b80601f016020809104026020016040519081016040528092919081815260200182805461157a90612d51565b80156115c75780601f1061159c576101008083540402835291602001916115c7565b820191906000526020600020905b8154815290600101906020018083116115aa57829003601f168201915b505050505081526020016005820180546115e090612d51565b80601f016020809104026020016040519081016040528092919081815260200182805461160c90612d51565b80156116595780601f1061162e57610100808354040283529160200191611659565b820191906000526020600020905b81548152906001019060200180831161163c57829003601f168201915b505050505081526020016006820160009054906101000a900460ff1660038111156116875761168661226e565b5b60038111156116995761169861226e565b5b8152602001600782015481526020016008820154815250509050919050565b6001808111156116cb576116ca61226e565b5b600160003373ffffffffffffffffffffffffffffffffffffffff1673ffffffffffffffffffffffffffffffffffffffff16815260200190815260200160002060009054906101000a900460ff16600181111561172a5761172961226e565b5b1461176a576040517f08c379a000000000000000000000000000000000000000000000000000000000815260040161176190612c9f565b60405180910390fd5b600080600084815260200190815260200160002060000154036117c2576040517f08c379a00000000000000000000000000000000000000000000000000000000081526004016117b990612e45565b60405180910390fd5b6001808111156117d5576117d461226e565b5b600160008373ffffffffffffffffffffffffffffffffffffffff1673ffffffffffffffffffffffffffffffffffffffff16815260200190815260200160002060009054906101000a900460ff1660018111156118345761183361226e565b5b14611874576040517f08c379a000000000000000000000000000000000000000000000000000000000815260040161186b906131d8565b60405180910390fd5b8060008084815260200190815260200160002060020160006101000a81548173ffffffffffffffffffffffffffffffffffffffff021916908373ffffffffffffffffffffffffffffffffffffffff160217905550600160008084815260200190815260200160002060060160006101000a81548160ff021916908360038111156119015761190061226e565b5b021790555042600080848152602001908152602001600020600801819055503373ffffffffffffffffffffffffffffffffffffffff168173ffffffffffffffffffffffffffffffffffffffff16837f8d3c7befb49ab350236403d9b04285dc4e50be6876ec1e0998ff7363e4e388b260405160405180910390a45050565b6060600080600084815260200190815260200160002060000154036119d9576040517f08c379a00000000000000000000000000000000000000000000000000000000081526004016119d090612e45565b60405180910390fd5b60026000838152602001908152602001600020805480602002602001604051908101604052809291908181526020016000905b82821015611b4457838290600052602060002090600502016040518060a001604052908160008201548152602001600182015481526020016002820160009054906101000a900473ffffffffffffffffffffffffffffffffffffffff1673ffffffffffffffffffffffffffffffffffffffff1673ffffffffffffffffffffffffffffffffffffffff168152602001600382018054611aa990612d51565b80601f0160208091040260200160405190810160405280929190818152602001828054611ad590612d51565b8015611b225780601f10611af757610100808354040283529160200191611b22565b820191906000526020600020905b815481529060010190602001808311611b0557829003601f168201915b5050505050815260200160048201548152505081526020019060010190611a0c565b505050509050919050565b600180811115611b6257611b6161226e565b5b600160003373ffffffffffffffffffffffffffffffffffffffff1673ffffffffffffffffffffffffffffffffffffffff16815260200190815260200160002060009054906101000a900460ff166001811115611bc157611bc061226e565b5b14611c01576040517f08c379a0000000000000000000000000000000000000000000000000000000008152600401611bf890612c9f565b60405180910390fd5b60008060008381526020019081526020016000206000015403611c59576040517f08c379a0000000000000000000000000000000000000000000000000000000008152600401611c5090612e45565b60405180910390fd5b600380811115611c6c57611c6b61226e565b5b60008083815260200190815260200160002060060160009054906101000a900460ff166003811115611ca157611ca061226e565b5b1480611cf3575060026003811115611cbc57611cbb61226e565b5b60008083815260200190815260200160002060060160009054906101000a900460ff166003811115611cf157611cf061226e565b5b145b611d32576040517f08c379a0000000000000000000000000000000000000000000000000000000008152600401611d299061326a565b60405180910390fd5b600080600083815260200190815260200160002060060160006101000a81548160ff02191690836003811115611d6b57611d6a61226e565b5b0217905550600080600083815260200190815260200160002060020160006101000a81548173ffffffffffffffffffffffffffffffffffffffff021916908373ffffffffffffffffffffffffffffffffffffffff16021790555042600080838152602001908152602001600020600801819055503373ffffffffffffffffffffffffffffffffffffffff16817f0b5bde8e088845f0c1afd37533c5052aefd3dbc67016653d9ea6e6753e2557f760405160405180910390a350565b60008060008481526020019081526020016000206000015403611e7e576040517f08c379a0000000000000000000000000000000000000000000000000000000008152600401611e7590612e45565b60405180910390fd5b6000815111611ec2576040517f08c379a0000000000000000000000000000000000000000000000000000000008152600401611eb9906132d6565b60405180910390fd5b600060046000815480929190611ed790612db1565b91905055905060006040518060a001604052808381526020018581526020013373ffffffffffffffffffffffffffffffffffffffff16815260200184815260200142815250905060026000858152602001908152602001600020819080600181540180825580915050600190039060005260206000209060050201600090919091909150600082015181600001556020820151816001015560408201518160020160006101000a81548173ffffffffffffffffffffffffffffffffffffffff021916908373ffffffffffffffffffffffffffffffffffffffff1602179055506060820151816003019081611fcb9190613098565b506080820151816004015550503373ffffffffffffffffffffffffffffffffffffffff1682857fdb54cde47150062529bc4f2e10c2493c8ae39bc079c9c24f9e365c135098d4bb60405160405180910390a450505050565b60045481565b60405180610120016040528060008152602001600073ffffffffffffffffffffffffffffffffffffffff168152602001600073ffffffffffffffffffffffffffffffffffffffff1681526020016060815260200160608152602001606081526020016000600381111561209f5761209e61226e565b5b815260200160008152602001600081525090565b6000604051905090565b600080fd5b600080fd5b600073ffffffffffffffffffffffffffffffffffffffff82169050919050565b60006120f2826120c7565b9050919050565b612102816120e7565b811461210d57600080fd5b50565b60008135905061211f816120f9565b92915050565b6002811061213257600080fd5b50565b60008135905061214481612125565b92915050565b60008060408385031215612161576121606120bd565b5b600061216f85828601612110565b925050602061218085828601612135565b9150509250929050565b600081519050919050565b600082825260208201905092915050565b6000819050602082019050919050565b6000819050919050565b6121c9816121b6565b82525050565b6121d8816120e7565b82525050565b600081519050919050565b600082825260208201905092915050565b60005b838110156122185780820151818401526020810190506121fd565b60008484015250505050565b6000601f19601f8301169050919050565b6000612240826121de565b61224a81856121e9565b935061225a8185602086016121fa565b61226381612224565b840191505092915050565b7f4e487b7100000000000000000000000000000000000000000000000000000000600052602160045260246000fd5b600481106122ae576122ad61226e565b5b50565b60008190506122bf8261229d565b919050565b60006122cf826122b1565b9050919050565b6122df816122c4565b82525050565b6000610120830160008301516122fe60008601826121c0565b50602083015161231160208601826121cf565b50604083015161232460408601826121cf565b506060830151848203606086015261233c8282612235565b915050608083015184820360808601526123568282612235565b91505060a083015184820360a08601526123708282612235565b91505060c083015161238560c08601826122d6565b5060e083015161239860e08601826121c0565b506101008301516123ad6101008601826121c0565b508091505092915050565b60006123c483836122e5565b905092915050565b6000602082019050919050565b60006123e48261218a565b6123ee8185612195565b935083602082028501612400856121a6565b8060005b8581101561243c578484038952815161241d85826123b8565b9450612428836123cc565b925060208a01995050600181019050612404565b50829750879550505050505092915050565b6000602082019050818103600083015261246881846123d9565b905092915050565b612479816121b6565b811461248457600080fd5b50565b60008135905061249681612470565b92915050565b6000602082840312156124b2576124b16120bd565b5b60006124c084828501612487565b91505092915050565b600481106124d657600080fd5b50565b6000813590506124e8816124c9565b92915050565b60008060408385031215612505576125046120bd565b5b600061251385828601612487565b9250506020612524858286016124d9565b9150509250929050565b600080fd5b600080fd5b7f4e487b7100000000000000000000000000000000000000000000000000000000600052604160045260246000fd5b61257082612224565b810181811067ffffffffffffffff8211171561258f5761258e612538565b5b80604052505050565b60006125a26120b3565b90506125ae8282612567565b919050565b600067ffffffffffffffff8211156125ce576125cd612538565b5b6125d782612224565b9050602081019050919050565b82818337600083830152505050565b6000612606612601846125b3565b612598565b90508281526020810184848401111561262257612621612533565b5b61262d8482856125e4565b509392505050565b600082601f83011261264a5761264961252e565b5b813561265a8482602086016125f3565b91505092915050565b60008060006060848603121561267c5761267b6120bd565b5b600084013567ffffffffffffffff81111561269a576126996120c2565b5b6126a686828701612635565b935050602084013567ffffffffffffffff8111156126c7576126c66120c2565b5b6126d386828701612635565b925050604084013567ffffffffffffffff8111156126f4576126f36120c2565b5b61270086828701612635565b9150509250925092565b612713816121b6565b82525050565b600060208201905061272e600083018461270a565b92915050565b61273d816120e7565b82525050565b600082825260208201905092915050565b600061275f826121de565b6127698185612743565b93506127798185602086016121fa565b61278281612224565b840191505092915050565b612796816122c4565b82525050565b6000610120820190506127b2600083018c61270a565b6127bf602083018b612734565b6127cc604083018a612734565b81810360608301526127de8189612754565b905081810360808301526127f28188612754565b905081810360a08301526128068187612754565b905061281560c083018661278d565b61282260e083018561270a565b61283061010083018461270a565b9a9950505050505050505050565b600060208284031215612854576128536120bd565b5b600061286284828501612110565b91505092915050565b6002811061287c5761287b61226e565b5b50565b600081905061288d8261286b565b919050565b600061289d8261287f565b9050919050565b6128ad81612892565b82525050565b60006020820190506128c860008301846128a4565b92915050565b600080604083850312156128e5576128e46120bd565b5b60006128f385828601612487565b925050602061290485828601612487565b9150509250929050565b600060a082019050612923600083018861270a565b612930602083018761270a565b61293d6040830186612734565b818103606083015261294f8185612754565b905061295e608083018461270a565b9695505050505050565b60006101208301600083015161298160008601826121c0565b50602083015161299460208601826121cf565b5060408301516129a760408601826121cf565b50606083015184820360608601526129bf8282612235565b915050608083015184820360808601526129d98282612235565b91505060a083015184820360a08601526129f38282612235565b91505060c0830151612a0860c08601826122d6565b5060e0830151612a1b60e08601826121c0565b50610100830151612a306101008601826121c0565b508091505092915050565b60006020820190508181036000830152612a558184612968565b905092915050565b60008060408385031215612a7457612a736120bd565b5b6000612a8285828601612487565b9250506020612a9385828601612110565b9150509250929050565b600081519050919050565b600082825260208201905092915050565b6000819050602082019050919050565b600060a083016000830151612ae160008601826121c0565b506020830151612af460208601826121c0565b506040830151612b0760408601826121cf565b5060608301518482036060860152612b1f8282612235565b9150506080830151612b3460808601826121c0565b508091505092915050565b6000612b4b8383612ac9565b905092915050565b6000602082019050919050565b6000612b6b82612a9d565b612b758185612aa8565b935083602082028501612b8785612ab9565b8060005b85811015612bc35784840389528151612ba48582612b3f565b9450612baf83612b53565b925060208a01995050600181019050612b8b565b50829750879550505050505092915050565b60006020820190508181036000830152612bef8184612b60565b905092915050565b60008060408385031215612c0e57612c0d6120bd565b5b6000612c1c85828601612487565b925050602083013567ffffffffffffffff811115612c3d57612c3c6120c2565b5b612c4985828601612635565b9150509250929050565b7f4e6f7420617574686f72697a65643a204d616e61676572206f6e6c7900000000600082015250565b6000612c89601c83612743565b9150612c9482612c53565b602082019050919050565b60006020820190508181036000830152612cb881612c7c565b9050919050565b7f4e487b7100000000000000000000000000000000000000000000000000000000600052601160045260246000fd5b6000612cf9826121b6565b9150612d04836121b6565b9250828203905081811115612d1c57612d1b612cbf565b5b92915050565b7f4e487b7100000000000000000000000000000000000000000000000000000000600052602260045260246000fd5b60006002820490506001821680612d6957607f821691505b602082108103612d7c57612d7b612d22565b5b50919050565b7f4e487b7100000000000000000000000000000000000000000000000000000000600052603260045260246000fd5b6000612dbc826121b6565b91507fffffffffffffffffffffffffffffffffffffffffffffffffffffffffffffffff8203612dee57612ded612cbf565b5b600182019050919050565b7f5469636b657420646f6573206e6f742065786973740000000000000000000000600082015250565b6000612e2f601583612743565b9150612e3a82612df9565b602082019050919050565b60006020820190508181036000830152612e5e81612e22565b9050919050565b6000602082019050612e7a600083018461278d565b92915050565b7f4e6f7420617574686f72697a6564000000000000000000000000000000000000600082015250565b6000612eb6600e83612743565b9150612ec182612e80565b602082019050919050565b60006020820190508181036000830152612ee581612ea9565b9050919050565b60008190508160005260206000209050919050565b60006020601f8301049050919050565b600082821b905092915050565b600060088302612f4e7fffffffffffffffffffffffffffffffffffffffffffffffffffffffffffffffff82612f11565b612f588683612f11565b95508019841693508086168417925050509392505050565b6000819050919050565b6000612f95612f90612f8b846121b6565b612f70565b6121b6565b9050919050565b6000819050919050565b612faf83612f7a565b612fc3612fbb82612f9c565b848454612f1e565b825550505050565b600090565b612fd8612fcb565b612fe3818484612fa6565b505050565b5b8181101561300757612ffc600082612fd0565b600181019050612fe9565b5050565b601f82111561304c5761301d81612eec565b61302684612f01565b81016020851015613035578190505b61304961304185612f01565b830182612fe8565b50505b505050565b600082821c905092915050565b600061306f60001984600802613051565b1980831691505092915050565b6000613088838361305e565b9150826002028217905092915050565b6130a1826121de565b67ffffffffffffffff8111156130ba576130b9612538565b5b6130c48254612d51565b6130cf82828561300b565b600060209050601f83116001811461310257600084156130f0578287015190505b6130fa858261307c565b865550613162565b601f19841661311086612eec565b60005b8281101561313857848901518255600182019150602085019450602081019050613113565b868310156131555784890151613151601f89168261305e565b8355505b6001600288020188555050505b505050505050565b600060208201905081810360008301526131848184612754565b905092915050565b7f43616e206f6e6c792061737369676e20746f204d616e61676572730000000000600082015250565b60006131c2601b83612743565b91506131cd8261318c565b602082019050919050565b600060208201905081810360008301526131f1816131b5565b9050919050565b7f4f6e6c7920636c6f736564206f72207265736f6c766564207469636b6574732060008201527f63616e2062652072656f70656e65640000000000000000000000000000000000602082015250565b6000613254602f83612743565b915061325f826131f8565b604082019050919050565b6000602082019050818103600083015261328381613247565b9050919050565b7f436f6d6d656e742063616e6e6f7420626520656d707479000000000000000000600082015250565b60006132c0601783612743565b91506132cb8261328a565b602082019050919050565b600060208201905081810360008301526132ef816132b3565b905091905056fea26469706673582212206be6ebe54106ac2428c7837e4b4095bd04efc23919c94d9f89ecc866e42147da64736f6c63430008130033",
  "immutableReferences": {},
  "source": "// SPDX-License-Identifier: MIT\r\npragma solidity ^0.8.19;\r\n\r\ncontract BlockDesk {\r\n    enum TicketStatus { Open, InProgress, Resolved, Closed }\r\n    enum UserRole { User, Manager }\r\n    \r\n    struct Ticket {\r\n        uint256 id;\r\n        address creator;\r\n        address assignedTo; // Changed from assignedAgent\r\n        string title;\r\n        string description;\r\n        string attachmentHash;\r\n        TicketStatus status;\r\n        uint256 createdAt;\r\n        uint256 updatedAt;\r\n    }\r\n    \r\n    struct Comment {\r\n        uint256 id;\r\n        uint256 ticketId;\r\n        address author;\r\n        string content;\r\n        uint256 createdAt;\r\n    }\r\n    \r\n    mapping(uint256 => Ticket) public tickets;\r\n    mapping(address => UserRole) public userRoles;\r\n    mapping(uint256 => Comment[]) public ticketComments; // ticketId => array of comments\r\n    uint256 public nextTicketId = 1;\r\n    uint256 public nextCommentId = 1;\r\n    \r\n    event TicketCreated(uint256 indexed ticketId, address indexed creator, string title);\r\n    event StatusUpdated(uint256 indexed ticketId, TicketStatus status, address indexed updater);\r\n    event TicketAssigned(uint256 indexed ticketId, address indexed assignee, address indexed assigner);\r\n    event TicketReopened(uint256 indexed ticketId, address indexed reopener);\r\n    event CommentAdded(uint256 indexed ticketId, uint256 indexed commentId, address indexed author);\r\n    \r\n    constructor() {\r\n        userRoles[msg.sender] = UserRole.Manager; // Contract deployer is manager\r\n    }\r\n    \r\n    modifier onlyManager() {\r\n        require(userRoles[msg.sender] == UserRole.Manager, \"Not authorized: Manager only\");\r\n        _;\r\n    }\r\n    \r\n    function createTicket(\r\n        string memory title,\r\n        string memory description,\r\n        string memory attachmentHash\r\n    ) external returns (uint256) {\r\n        uint256 ticketId = nextTicketId++;\r\n        \r\n        tickets[ticketId] = Ticket({\r\n            id: ticketId,\r\n            creator: msg.sender,\r\n            assignedTo: address(0),\r\n            title: title,\r\n            description: description,\r\n            attachmentHash: attachmentHash,\r\n            status: TicketStatus.Open,\r\n            createdAt: block.timestamp,\r\n            updatedAt: block.timestamp\r\n        });\r\n        \r\n        emit TicketCreated(ticketId, msg.sender, title);\r\n        return ticketId;\r\n    }\r\n    \r\n    function updateStatus(uint256 ticketId, TicketStatus status) external {\r\n        require(tickets[ticketId].id != 0, \"Ticket does not exist\");\r\n        require(\r\n            tickets[ticketId].creator == msg.sender ||\r\n            tickets[ticketId].assignedTo == msg.sender ||\r\n            userRoles[msg.sender] == UserRole.Manager,\r\n            \"Not authorized\"\r\n        );\r\n        \r\n        tickets[ticketId].status = status;\r\n        tickets[ticketId].updatedAt = block.timestamp;\r\n        \r\n        emit StatusUpdated(ticketId, status, msg.sender);\r\n    }\r\n    \r\n    // Only Managers can be assigned tickets now\r\n    function assignTicket(uint256 ticketId, address assignee) external onlyManager {\r\n        require(tickets[ticketId].id != 0, \"Ticket does not exist\");\r\n        // Ensure the assignee is a Manager (or allow assigning to self if Manager)\r\n        require(userRoles[assignee] == UserRole.Manager, \"Can only assign to Managers\");\r\n        \r\n        tickets[ticketId].assignedTo = assignee;\r\n        tickets[ticketId].status = TicketStatus.InProgress;\r\n        tickets[ticketId].updatedAt = block.timestamp;\r\n        \r\n        emit TicketAssigned(ticketId, assignee, msg.sender);\r\n    }\r\n\r\n    // Only Managers can resolve tickets\r\n    function resolveTicket(uint256 ticketId) external onlyManager {\r\n        require(tickets[ticketId].id != 0, \"Ticket does not exist\");\r\n        tickets[ticketId].status = TicketStatus.Resolved;\r\n        tickets[ticketId].updatedAt = block.timestamp;\r\n        emit StatusUpdated(ticketId, TicketStatus.Resolved, msg.sender);\r\n    }\r\n\r\n    function closeTicket(uint256 ticketId) external onlyManager {\r\n        require(tickets[ticketId].id != 0, \"Ticket does not exist\");\r\n        tickets[ticketId].status = TicketStatus.Closed;\r\n        tickets[ticketId].updatedAt = block.timestamp;\r\n        emit StatusUpdated(ticketId, TicketStatus.Closed, msg.sender);\r\n    }\r\n    \r\n    // New: Reopen a closed or resolved ticket\r\n    function reopenTicket(uint256 ticketId) external onlyManager {\r\n        require(tickets[ticketId].id != 0, \"Ticket does not exist\");\r\n        require(\r\n            tickets[ticketId].status == TicketStatus.Closed || \r\n            tickets[ticketId].status == TicketStatus.Resolved,\r\n            \"Only closed or resolved tickets can be reopened\"\r\n        );\r\n        \r\n        tickets[ticketId].status = TicketStatus.Open;\r\n        tickets[ticketId].assignedTo = address(0); // Clear assignment\r\n        tickets[ticketId].updatedAt = block.timestamp;\r\n        emit TicketReopened(ticketId, msg.sender);\r\n    }\r\n    \r\n    // New: Add a comment to a ticket\r\n    function addComment(uint256 ticketId, string memory content) external {\r\n        require(tickets[ticketId].id != 0, \"Ticket does not exist\");\r\n        require(bytes(content).length > 0, \"Comment cannot be empty\");\r\n        \r\n        uint256 commentId = nextCommentId++;\r\n        Comment memory newComment = Comment({\r\n            id: commentId,\r\n            ticketId: ticketId,\r\n            author: msg.sender,\r\n            content: content,\r\n            createdAt: block.timestamp\r\n        });\r\n        \r\n        ticketComments[ticketId].push(newComment);\r\n        emit CommentAdded(ticketId, commentId, msg.sender);\r\n    }\r\n    \r\n    // Get all comments for a ticket\r\n    function getTicketComments(uint256 ticketId) external view returns (Comment[] memory) {\r\n        require(tickets[ticketId].id != 0, \"Ticket does not exist\");\r\n        return ticketComments[ticketId];\r\n    }\r\n    \r\n    function setUserRole(address user, UserRole role) external onlyManager {\r\n        userRoles[user] = role;\r\n    }\r\n    \r\n    function getTicket(uint256 ticketId) external view returns (Ticket memory) {\r\n        require(tickets[ticketId].id != 0, \"Ticket does not exist\");\r\n        return tickets[ticketId];\r\n    }\r\n\r\n    function getAllTickets() external view returns (Ticket[] memory) {\r\n        uint256 count = nextTicketId - 1;\r\n        Ticket[] memory allTickets = new Ticket[](count);\r\n        \r\n        for (uint256 i = 1; i <= count; i++) {\r\n            allTickets[i - 1] = tickets[i];\r\n        }\r\n        \r\n        return allTickets;\r\n    }\r\n}",
  "sourcePath": "C:\\Users\\Rocket Monkey\\BlockDesk\\BlockDesk\\blockchain\\contracts\\BlockDesk.sol",
  "compiler": {
    "name": "solc",
    "version": "0.8.19+commit.7dd6d404.Emscripten.clang"
  },
  "schemaVersion": "3.4.16",
  "updatedAt": "2025-11-29T12:25:17.167Z",
  "networkType": "ethereum",
  "devdoc": {
    "kind": "dev",
    "methods": {},
    "version": 1
  },
  "userdoc": {
    "kind": "user",
    "methods": {},
    "version": 1
  }
}